:100000007EC2000099C2000097C2000095C20000A5
:1000100093C2000091C200008FC200008DC2000098
:100020008BC200008AC200000C940E1B85C2000027
:1000300083C2000081C200007FC200007DC20000B8
:100040007BC2000079C2000077C2000075C20000C8
:1000500073C2000071C200006FC200006DC20000D8
:100060006BC2000069C2000067C2000065C20000E8
:1000700063C2000061C200005FC200005DC20000F8
:100080005BC2000059C2000057C2000055C2000008
:1000900053C2000051C200004FC200004DC2000018
:1000A0004BC2000049C2000047C20000000000012E
:1000B000000F06FE0000000000000000FF00447278
:1000C00065616D6361737420436F6E74726F6C6CE5
:1000D00065722020202020202020202050726F6474
:1000E00075636564204279206F7220556E64657275
:1000F000204C6963656E73652046726F6D205345B1
:10010000474120454E5445525052495345532C4C7B
:1001100054442E2020202020AE01F40105010905C1
:10012000A10115002501350045017501950D050951
:100130001901290D81029503810105012507463B1F
:1001400001750495016514093981426500950181A5
:100150000126FF0046FF00093009310932093575D3
:1001600008950481020600FF0920092109220923BC
:10017000092409250926092709280929092A092BFB
:10018000950C81020A21269508B1020A21269102C6
:1001900026FF0346FF03092C092D092E092F751090
:1001A00095048102C005010905A1018501093009F5
:1001B0003109320935150026FF00750895048102C2
:1001C0000939150025073500463B0165147504956E
:1001D000018142650005091901290E1500250175E7
:1001E00001950E81020600FF092075069501810226
:1001F000050109330934150026FF007508950281B1
:10020000020600FF09219536810285050922951F06
:10021000910285030A2127952FB102C006F0FF093C
:1002200040A10185F00947953FB10285F109489544
:100230003FB10285F20949950FB10285F30A0147E2
:100240009507B102C01201100100000040100082A9
:10025000000100010200011201100100000040C471
:1002600010C0820100010200011201000200000022
:10027000400D0F55000001010200011201100100A4
:100280000000405E0489022101000000011201000B
:1002900002FFFFFF085E048E021001010203010944
:1002A00002290001010080FA090400000203000095
:1002B0000009211101000122890007050203400005
:1002C00001070581034000010902290001010080A6
:1002D000FA090400000203000000092111010001D5
:1002E00022A0000705840340000407050303400023
:1002F000040902200001010080FA090400000258EC
:1003000042000007050203200004070581032000C6
:100310000409029900040100A0FA0904000002FF88
:100320005D01001121100101258114030303041351
:1003300002080303070581032000010705020320CB
:1003400000080904010004FF5D03001B21000101F6
:1003500001834001042016850000000000001605FE
:1003600000000000000007058303200002070504C9
:10037000032000040705850320004007050503202E
:1003800000100904020001FF5D01000921000101C4
:1003900022860700070586032000100904030000D9
:1003A000FFFD1304064100010103B203580062007F
:1003B0006F00780020005300650063007500720034
:1003C00069007400790020004D0065007400680029
:1003D0006F006400200033002C00200056006500F0
:1003E0007200730069006F006E00200031002E0063
:1003F000300030002C002000A90020003200300026
:100400003000350020004D006900630072006F006D
:1004100073006F0066007400200043006F007200DC
:1004200070006F0072006100740069006F006E0060
:100430002E00200041006C006C002000720069005A
:10044000670068007400730020007200650073008C
:10045000650072007600650064002E000000120343
:100460004D00530046005400310030003000900031
:100470000000100331003000300038003300360037
:100480003600000004030904200341006B006900EA
:10049000730068006F007000200043007500730057
:1004A00074006F006D00730000001E034D006900B2
:1004B000630072006F0073006F006600740020001C
:1004C00049006E0063002E0000001A035000530024
:1004D0003300360030002B002000760031002E0063
:1004E000360031000000160343006F006E007400F8
:1004F00072006F006C006C00650072000000112437
:100500001FBECFEFDAE0DEBFCDBF11E0A0E0B1E06B
:10051000E6EBFEE302C005900D92AA35B107D9F7CC
:1005200011E0AAE5B1E001C01D92A83AB107E1F7D8
:100530000E94A2180C94591F63CD2F932FB72F93AD
:100540001F994CC23F9327E02A95F1F70000000065
:10055000000000000000000000000000000000009B
:1005600000000000000033B133FB27F90000000059
:100570000000000033B137FB26F900000000000046
:100580000000000033B133FB25F90000000000003B
:10059000000033B137FB24F9000000000000000028
:1005A000000033B133FB23F900000000000000001D
:1005B00033B137FB22F9000000000000000000000A
:1005C00033B133FB21F9000000000000000033B11B
:1005D00037FB20F900000000000000002093860196
:1005E00033B133FB27F9000000000000000033B1F5
:1005F00037FB26F90000000000000000000033B1C6
:1006000033FB25F9000000000000000033B137FB88
:1006100024F90000000000000000000033B133FBAB
:1006200023F9000000000000000033B137FB22F97D
:100630000000000000000000000033B133FB21F98E
:10064000000000000000000033B137FB20F900007B
:100650000000000000002093850133B133FB27F92F
:10066000000000000000000033B137FB26F9000055
:10067000000000000000000033B133FB25F900004A
:1006800000000000000033B137FB24F90000000037
:1006900000000000000033B133FB23F9000000002C
:1006A0000000000033B137FB22F900000000000019
:1006B0000000000033B133FB21F90000000000000E
:1006C000000033B137FB20F90000000000000000FB
:1006D0002093840133B133FB27F9000000000000B0
:1006E000000033B137FB26F90000000000000000D5
:1006F000000033B133FB25F90000000000000000CA
:1007000033B137FB24F900000000000000000000B6
:1007100033B133FB23F9000000000000000033B1C7
:1007200037FB22F90000000000000000000033B198
:1007300033FB21F9000000000000000033B137FB5B
:1007400020F9000000000000000020938301000059
:1007500033B133FB27F9000000000000000033B183
:1007600037FB26F90000000000000000000033B154
:1007700033FB25F9000000000000000033B137FB17
:1007800024F90000000000000000000033B133FB3A
:1007900023F9000000000000000033B137FB22F90C
:1007A0000000000000000000000033B133FB21F91D
:1007B000000000000000000033B137FB20F900000A
:1007C00000000000000020938A0133B133FB27F9B9
:1007D000000000000000000033B137FB26F90000E4
:1007E000000000000000000033B133FB25F90000D9
:1007F00000000000000033B137FB24F900000000C6
:1008000000000000000033B133FB23F900000000BA
:100810000000000033B137FB22F9000000000000A7
:100820000000000033B133FB21F90000000000009C
:10083000000033B137FB20F9000000000000000089
:100840002093890133B133FB27F900000000000039
:10085000000033B137FB26F9000000000000000063
:10086000000033B133FB25F9000000000000000058
:1008700033B137FB24F90000000000000000000045
:1008800033B133FB23F9000000000000000033B156
:1008900037FB22F90000000000000000000033B127
:1008A00033FB21F9000000000000000033B137FBEA
:1008B00020F900000000000000002093880133B1FF
:1008C00033FB27F9000000000000000033B137FBC4
:1008D00026F90000000000000000000033B133FBE7
:1008E00025F9000000000000000033B137FB24F9B7
:1008F0000000000000000000000033B133FB23F9CA
:10090000000000000000000033B137FB22F90000B6
:10091000000000000000000033B133FB21F90000AB
:1009200000000000000033B137FB20F90000000098
:100930000000000020938701000033B133FB27F94A
:10094000000000000000000033B137FB26F9000072
:10095000000000000000000033B133FB25F9000067
:1009600000000000000033B137FB24F90000000054
:1009700000000000000033B133FB23F90000000049
:100980000000000033B137FB22F900000000000036
:100990000000000033B133FB21F90000000000002B
:1009A000000033B137FB20F9000000000000000018
:1009B00020938B012FEF209382011F9BFECF1B9B67
:1009C000FCCF1F9BFACF1B9BF8CF1F9BF6CF1B9B27
:1009D000F4CF1F9BF2CF1B9BF0CF3F912F912FBFE6
:1009E0002F9118953E983F988698879808950F9371
:1009F0001F93CF93DF93382F0E94881F000069B1C5
:100A000080917901882321F053B15095507303C030
:100A100053B150955077E32FF92F88E082831782E6
:100A2000118612861086108211821586138616860C
:100A30001486128A118A108A178680E88383848339
:100A400085838683148A138A168A158A108E178ADC
:100A5000128E118E8091750130E0882349F121FFBB
:100A600003C0109276011CC024FF02C081E003C0C5
:100A700025FF04C082E08093760112C020FF10C0E1
:100A800080910D01882361F080917401882321F405
:100A900081E08093740102C01092740110920D01E4
:100AA00054FF9AC11092750181E080930D0194C1A9
:100AB00021FF33C0809176018823B9F4C901807287
:100AC000907024FF07C0892B61F487E082838FEF49
:100AD00087836EC0892B29F081E082838FEF878323
:100AE0007EC012828FEF878385C0813051F41482DB
:100AF000C9018072907024FD37C0892B09F47AC037
:100B000072C0823051F41682C9018072907024FD47
:100B10003DC0892B09F46EC06BC020FF3EC08091A0
:100B200076018823C1F4C9018072907024FF07C048
:100B3000892B61F485E082838FEF818739C0892B0F
:100B400029F083E082838FEF818749C084E082832C
:100B50008FEF81874FC0813081F44FEF4483C9010B
:100B60008072907024FF04C0892B09F043C026C016
:100B7000892B09F43FC043833DC0823071F44FEFAD
:100B80004683C9018072907024FF03C0892B91F5C0
:100B90001BC0892B79F145832DC024FF17C080919C
:100BA0007601882339F425FD25C086E082838FEF06
:100BB000828720C0813021F425FD1CC013821AC019
:100BC000823021F425FD16C0158214C025FF12C005
:100BD00080917601882329F482E082838FEF8087D9
:100BE00009C0813019F48FEF838304C0823011F47F
:100BF0008FEF8583962F9095292F30E0D901A17032
:100C0000B07090FF05C08081816080838FEF828B00
:100C1000E901C270D07021FF05C0808188608083A7
:100C20008FEF878722FF05C08081806280838FEFEE
:100C3000868723FF05C08081806180838FEF858751
:100C400024FF05C08081826080838FEF818B25FF28
:100C500005C08081846080838FEF808B26FF05C074
:100C60008081806880838FEF848797FF05C08081B3
:100C7000806480838FEF8387652F70E08B01007124
:100C8000107054FF03C081818260818365FF82C040
:100C900041814160418380910E01882309F499C00C
:100CA000AB2B21F1C90186709070069709F08DC0B9
:100CB0008081807580834C70418316861486128AE9
:100CC000118A108A178681E0809375017EC0808129
:100CD000807591819C70918316861486128A118A80
:100CE000108A1786806180838FEF8587C9018073A2
:100CF0009070C09779F48081807591819C70918308
:100D000016861486128A118A108A17868064808358
:100D10008FEF8387C90186709070069769F4808190
:100D20008075808381818C7016861486128A118A60
:100D3000108A1786846081832076307020363105D2
:100D400009F047C080818075808381818C70168610
:100D50001486128A118A108A17868860818339C0A6
:100D600080910F018823B1F080917701882341F4AD
:100D700081E080937701809181008560809381007C
:100D8000B19B2AC080917401882331F581818061F3
:100D9000818322C066FF0BC080917901882339F4DA
:100DA00081818061818381E08093740115C082E03C
:100DB00086BB1092850010928400809181008A7F0A
:100DC000809381001092770107C0CD2B09F07FCF6F
:100DD0008DCF012BF9F2C4CFDF91CF911F910F91ED
:100DE00008950F931F93CF93DF93382F2FB1209542
:100DF000237369B180917901882321F053B1509513
:100E0000507303C053B150955077E32FF92F8FE003
:100E1000858316821782108611869FE7918380E86A
:100E200082839383848341E04083128613861486F1
:100E3000158616861786108A118A128A138A148AD2
:100E4000158A168A178A108E118E128E138E148EA2
:100E5000158E168E178E10A211A212A213A214A222
:100E600015A216A217A210A611A612A613A614A6C2
:100E700015A616A617A610AA11AA12AA13AA14AA92
:100E800015AA16AA17AA10AE11AE12AE13AE14AE62
:100E900015AE16AE17AE8091750130E0882349F18A
:100EA00021FF03C0109276011CC024FF03C04093B1
:100EB000760117C025FF04C082E08093760111C03F
:100EC00020FF0FC080910D01882359F0809174019B
:100ED000882319F44093740102C010927401109297
:100EE0000D0154FF69C11092750181E080930D01DD
:100EF00063C121FF2BC080917601882379F4C90159
:100F00008072907024FF04C0892B31F487E076C092
:100F1000892B11F045837DC015827BC0813051F44F
:100F20001282C9018072907024FD31C0892B09F4AE
:100F300070C068C0823051F41482C9018072907010
:100F400024FD36C0892B09F464C061C020FF37C07E
:100F500080917601882391F4C9018072907024FFFA
:100F600005C02581892B39F4257F06C02581892B71
:100F700011F0237F01C0247F25834BC0813079F499
:100F80004FEF4283C9018072907024FF04C0892B07
:100F900009F03FC023C0892BE1F141833AC0823080
:100FA00071F44FEF4483C9018072907024FF03C035
:100FB000892B79F519C0892B61F143832AC024FF5D
:100FC00015C080917601882329F425FD22C08581F2
:100FD000867F14C0813021F425FD1BC0118219C009
:100FE000823021F425FD15C0138213C025FF11C0E6
:100FF00080917601882321F48581827F858309C0D1
:10100000813019F48FEF818304C0823011F48FEFA7
:101010008383962F9095292F30E0D901A170B0706D
:1010200090FF03C0858180618583E901C270D07023
:1010300021FF03C085818068858322FF03C08681EC
:101040008260868323FF03C086818160868324FFBC
:1010500003C085818062858325FF03C0858180640C
:101060008583B9016074707026FF05C08681886031
:1010700086838FEF818797FF05C086818460868392
:101080008FEF8087452F50E08A010071107044FF78
:1010900003C086818062868345FF6CC08681806143
:1010A0008683672B19F081E08093780180910E018F
:1010B000882309F47EC0AB2BC9F0C90186709070FB
:1010C000069709F072C08FE085838681857C8683D0
:1010D0001086118681E08093750167C08FE085835B
:1010E0008681857C1086118681608683C901807324
:1010F0009070C09749F48FE085838681857C118646
:10110000846086838FEF8087C90186709070069710
:1011100041F48FE085838681857C1086118680640A
:101120008683207630702036310509F042C08FE08A
:1011300085838681857C108611868068868339C088
:1011400080910F018823B1F080917701882341F4C9
:1011500081E0809377018091810085608093810098
:10116000B19B2AC080917401882331F58781816009
:10117000878322C046FF0BC080917901882339F410
:1011800087818160878381E08093740115C082E04C
:1011900086BB1092850010928400809181008A7F26
:1011A000809381001092770107C0CD2B09F096CF74
:1011B0009DCF012BF9F2C4CFDF91CF911F910F91F9
:1011C0000895CF93DF93382F0E94881F000079B1F2
:1011D00080917901882321F063B16095607303C029
:1011E00063B160956077E32FF92F108284E18183EA
:1011F0001382148215821682178210861186128637
:10120000138612821586148617861686118A108A0E
:10121000138A128A8091750130E08823B1F021FF92
:1012200003C01092760109C024FF02C081E003C010
:1012300025FF03C082E08093760164FF3BC11092DA
:10124000750181E080930D0135C121FF3BC0809184
:101250007601882389F481E08283C90180729070CD
:1012600024FF05C0892B09F09FC085E077C0892B3A
:1012700009F49AC089E072C0813089F44FEF5FE7CA
:1012800057874687C9018072907024FF04C0892B5C
:1012900009F08AC069C0892B09F486C03BC082303E
:1012A00089F44FEF5FE7538B428BC90180729070D6
:1012B00024FF04C0892B09F077C05DC0892B09F495
:1012C00073C03CC020FF40C0809176018823A1F408
:1012D0004281842F82608283C9018072907024FFD2
:1012E00005C0892B09F060C0466004C0892B09F451
:1012F0005BC04A60428358C0813099F440E050E8B6
:1013000057874687C9018072907024FF06C0892BD9
:1013100009F04AC05587448747C0892B09F444C067
:1013200038C0823089F440E050E8538B428BC901C9
:101330008072907024FF05C0892BB1F5518B408BD2
:1013400033C0892B89F12CC024FF18C0809176010D
:10135000882331F425FD28C082818460828324C0E3
:10136000813029F425FD20C080E090E814C082304F
:1013700029F425FD19C080E090E814C025FF14C0B1
:1013800080917601882319F482818860E7CF8130CB
:1013900029F48FEF9FE79587848706C0823021F478
:1013A0008FEF9FE7918B808B972F9095292F30E0BF
:1013B000D901A170B07090FF02C08FEF8683E90160
:1013C000C270D07021FF02C08FEF878322FF02C05E
:1013D0008FEF818723FF02C08FEF828724FF02C037
:1013E0008FEF848325FF02C08FEF858326FF02C025
:1013F0008FEF808797FF02C08FEF8387962F64FF60
:1014000003C082818061828395FF54C04281406223
:101410004283AB2BE9F0C90186709070069709F002
:1014200046C01482158216821782108611864F7C60
:10143000428381E0809375013AC01482158216823E
:1014400017821086118682818F7C82838FEF82873C
:10145000C90180739070C09759F414821582168266
:1014600017821086118682818F7C82838FEF83871B
:10147000C90186709070069751F414821582168205
:1014800017821086118682818F7C80648283207609
:1014900030702036310571F414821582168217825D
:1014A0001086118682818F7C8068828303C0CD2B59
:1014B00021F6CECFDF91CF9108950F931F93CF9355
:1014C000DF93382F0E94881F000079B18091790163
:1014D000882321F063B16095607303C063B16095A8
:1014E0006077E32FF92F108284E1818316861786B7
:1014F000108A118A128A138A138214821582128228
:101500001782168211861086138612861586148617
:101510008091750130E08823B1F021FF03C0109263
:10152000760109C024FF02C081E003C025FF03C08B
:1015300082E08093760164FF6AC11092750181E0B8
:1015400080930D0164C121FF3BC080917601882307
:1015500089F481E08283C9018072907024FF05C004
:10156000892B09F09FC085E077C0892B09F49AC0C8
:1015700089E072C0813089F44FEF5FE7518740877F
:10158000C9018072907024FF04C0892B09F08AC0C1
:1015900069C0892B09F486C03BC0823089F44FEFC3
:1015A0005FE755874487C9018072907024FF04C0AB
:1015B000892B09F077C05DC0892B09F473C03CC04A
:1015C00020FF40C0809176018823A1F44281842FBE
:1015D00082608283C9018072907024FF05C0892BCC
:1015E00009F060C0466004C0892B09F45BC04A6002
:1015F000428358C0813099F440E050E851874087D9
:10160000C9018072907024FF06C0892B09F04AC07E
:101610005783468347C0892B09F444C038C08230C1
:1016200089F440E050E855874487C9018072907082
:1016300024FF05C0892BB1F55387428733C0892B1E
:1016400089F12CC024FF18C080917601882331F4E1
:1016500025FD28C082818460828324C0813029F4E2
:1016600025FD20C080E090E814C0823029F425FDDB
:1016700019C080E090E814C025FF14C08091760165
:10168000882319F482818860E7CF813029F48FEFB5
:101690009FE79783868306C0823021F48FEF9FE710
:1016A00093878287972F9095292F30E0D901A170D9
:1016B000B07090FF03C0838180648383E901C270AE
:1016C000D07021FF03C083818068838322FF03C021
:1016D00083818260838323FF02C08FEF848324FF92
:1016E00003C083818061838325FF03C0838180627F
:1016F000838326FF03C083818160838397FF02C0B9
:101700008FEF858370E08B010071107064FF03C060
:1017100082818061828365FF58C04281406242833A
:1017200080910E01882309F46FC0AB2B99F0C90199
:1017300086709070069709F063C013824F7C4283D5
:1017400081E0809375015CC0138282818F7C8283EB
:101750008FEF8483C90180739070C09731F4138236
:1017600082818F7C82838FEF8583C9018670907020
:10177000069729F4138282818F7C8064828320768D
:1017800030702036310509F03FC0138282818F7C92
:101790008068828339C080910F018823B1F08091E5
:1017A0007701882341F481E0809377018091810063
:1017B000856080938100B19B2AC080917401882349
:1017C00031F583818460838322C066FF0BC08091E2
:1017D0007901882339F483818460838381E0809355
:1017E000740115C082E086BB1092850010928400BF
:1017F000809181008A7F809381001092770107C0D9
:10180000CD2B09F0A1CFA6CF012BF9F2C4CFDF91E8
:10181000CF911F910F91089584B1807784B985B1DC
:10182000876085B9239A1CBC8CB580648CBD8CB54F
:1018300080628CBD8CB588608CBD8CB584608CBD9D
:101840002F9827980895982F27988DB581118EB5D8
:101850009EBD90E025E008C0822F8A95F1F79F5F3A
:10186000993C11F48AEA08950DB407FEF5CF611191
:10187000279A8EB508954F925F926F927F928F92C2
:101880009F92AF92BF92CF92DF92EF92FF920F930F
:101890001F93CF93DF93D82E81E090E020E80FB61E
:1018A000F89420936100809361000FBEB5DF00E0E3
:1018B000FF24FA94F0E8EF2EE5E3CE2E79E7B72E79
:1018C00061E4A62E53E7952E4CEF842E3FE7732E4E
:1018D0002FEE622E9FEC592E8FE6482E2798FEBCE5
:1018E0001899FCCF9FB19095937369B160958091E1
:1018F0007901882321F053B15095507303C053B13F
:1019000050955077F0920101F0920201E0920301AC
:10191000E0920401E0920501E092060110925E015E
:1019200010925F01109260011092610110926201A9
:101930001092630110926401109265011092660189
:1019400010926701109268011092690180917501EF
:10195000292F30E0882349F191FF03C010927601CE
:101960001CC094FF02C081E003C095FF04C082E068
:101970008093760112C090FF10C080910D018823E2
:1019800061F080917401882321F481E080937401D7
:1019900002C01092740110920D0154FFE3C1109225
:1019A000750181E080930D01DDC191FF23C080911D
:1019B00076018823A9F460920101F0926001C901C7
:1019C0008072907024FF06C0892B09F089C0409274
:1019D000010160C0892B09F483C0509201012AC023
:1019E000813019F4109204012CC0823019F4109245
:1019F000060138C020FF41C0809176018823E9F4B8
:101A000040910101842F8F7B80930101F09261014D
:101A1000C9018072907024FF07C0892B09F060C053
:101A20004F734093010136C0892B09F459C04F7997
:101A300040930101F0925E0153C0813079F4F0923D
:101A40000401C9018072907024FF04C0892B09F041
:101A500047C027C0892B09F443C03BC0823069F4DA
:101A6000F0920601C9018072907024FF03C0892B97
:101A7000B9F51EC0892BA1F131C024FF1CC0809193
:101A80007601882351F425FD2BC0809101018F77C9
:101A900080930101F0925F0123C0813029F425FD7C
:101AA0001FC0109203011CC0823029F425FD18C00C
:101AB0001092050115C025FF13C08091760188237F
:101AC00031F4809101018F7D80930101B3CF81308A
:101AD00019F4F092030104C0823011F4F092050170
:101AE000262F30E0F901E170F07060FF04C07092C1
:101AF0000201F0926301D901A270B07021FF07C00A
:101B0000809102018F7E80930201F092620122FF98
:101B100007C080910201877F80930201F0926701E4
:101B200023FF07C0809102018B7F80930201F09216
:101B3000660124FF07C0809102018F7B8093020120
:101B4000F092640125FF07C0809102018F7D809390
:101B50000201F092650126FF07C0809102018D7F8E
:101B600080930201F092690167FF07C08091020132
:101B70008E7F80930201F0926801652F70E0EB0187
:101B8000C071D07054FF05C080910101877F8093A0
:101B9000010165FFD2C0409101014E7F40930101D8
:101BA00080910E01882309F4D0C2EF2BB9F1C9014D
:101BB00086709070069709F0C4C2496F4093010186
:101BC000809102018A6F809302011092620110924B
:101BD00063011092640110926501109267011092E6
:101BE000690181E080937501ACC280910101896F28
:101BF00080930101809102018A6F1092620110921C
:101C000063011092640110926501109267011092B5
:101C100069018B7F80930201F0926601C901807394
:101C20009070C097C9F480910101896F8093010180
:101C3000809102018A6F10926201109263011092EA
:101C400064011092650110926701109269018E7F04
:101C500080930201F0926801C90186709070069726
:101C6000B9F490910101996F809102018A6F80937C
:101C700002011092620110926301109264011092AD
:101C8000650110926701109269019D7F9093010197
:101C9000207630702036310509F057C2909101014D
:101CA000996F809102018A6F809302011092620104
:101CB0001092630110926401109265011092670105
:101CC000109269019B7F909301013FC283E0D81677
:101CD000A1F580910F01882381F1809181008560B9
:101CE00080938100B19B3EC0809174018823D1F51F
:101CF000F0920201E0920301E0920401E0920501FA
:101D0000E092060110925E0110925F011092600154
:101D100010926101109262011092630110926401AD
:101D2000109265011092660110926701109268018D
:101D3000109269018092010115C066FF08C0809170
:101D40007901882321F481E0809374010BC082E043
:101D500086BB1092850010928400809181008A7F5A
:101D6000809381008FEF61E06EDD813009F0E1C189
:101D700080916A01882309F417C183EF61E063DD74
:101D8000182F8AE561E05FDD153409F47EC0163452
:101D900088F4123409F457C0133430F41034E9F0E5
:101DA000113409F0C6C122C01334B9F1143409F05A
:101DB000C0C14CC01C3409F4AEC01D3438F4163414
:101DC00009F473C0173409F0B4C194C01D3409F488
:101DD000BEC01F3409F0ADC1D3C080E061E033DD87
:101DE000082F80E061E02FDD82E0D4C080916B019C
:101DF000813041F48FEF61E026DD8FEF61E023DD7C
:101E000083E0C8C080E061E01EDD80E061E01BDDB2
:101E100080E061E018DD80E096C080E061E013DDE5
:101E2000082F80E061E00FDD80E061E00CDD80E004
:101E300061E009DD80E061E006DD80E060E003DD77
:101E4000002309F076C110926A0173C180E061E05D
:101E5000FADC082F80E061E0F6DC80E061E0F3DC92
:101E600080E061E0F0DC80E061E0EDDC80E060E0FB
:101E7000EADC013029F49092070100936B0159C10B
:101E8000A092070110926B0154C181E061E0DBDC9C
:101E9000082F82E061E0D7DC80916B01813009F08E
:101EA00080E061E0D0DC82E02FC080E061E0CBDC4C
:101EB000082F882371F480E061E0C5DC81E061E0F7
:101EC000C2DC82E061E0BFDC80E061E0BCDC8AE093
:101ED00054C0813009F02DC180E061E0B4DC81E0C4
:101EE00061E0B1DC81E061E0AEDC81E061E0ABDCCF
:101EF00084E143C080E061E0A6DC80E061E0A3DC37
:101F000082E061E0A0DC80E061E09DDC81E061E0F6
:101F10009ADC80E032C080E061E095DC082F882305
:101F200041F480E061E08FDC80E061E08CDC84E003
:101F30000AC0813009F0FDC080E061E084DC80E00F
:101F400061E081DC87E061E07EDC80E0E0CF8091D1
:101F5000080161E078DC809308018091090161E06B
:101F600072DC809309018FEF61E06DDC8FEF61E03F
:101F70006ADC8FEF61E067DC8FEF60E064DCD9C082
:101F8000B092070180E061E05EDC082F80E061E054
:101F90005ADC80E061E057DC80E061E054DC80E006
:101FA00061E051DC8AE5E9CF8091070161E04BDC1B
:101FB000182F8AE561E047DC80910701813449F4FC
:101FC0008091010161E03FDC082F8091020160E017
:101FD0003ADC80910701833759F58091010161E076
:101FE00032DC082F8A3A09F4A4C08091020161E032
:101FF0002ADC8A3A09F49DC08091050161E023DC66
:102000008A3A09F496C08091060161E01CDC8A3AA4
:1020100009F48FC08091030161E015DC8A3A09F46C
:1020200088C08091040160E00EDC8A3A09F481C026
:1020300080910701893709F076C08091010161E044
:1020400002DC082F8A3A09F474C08091020161E031
:10205000FADB8A3A09F46DC08091050161E0F3DB97
:102060008A3A09F466C08091060161E0ECDB8A3AA5
:1020700009F45FC08091030161E0E5DB8A3A09F46D
:1020800058C08091040161E0DEDB8A3A09F451C056
:1020900080915E0161E0D7DB8A3A09F44AC0809101
:1020A0005F0161E0D0DB8A3A09F443C080916001AE
:1020B00061E0C9DB8A3A09F43CC08091610161E0CA
:1020C000C2DB8A3AB1F18091620161E0BCDB8A3AFD
:1020D00081F18091650161E0B6DB8A3A51F180912E
:1020E000640161E0B0DB8A3A21F18091630161E033
:1020F000AADB8A3AF1F08091660161E0A4DB8A3ABA
:10210000C1F08091670161E09EDB8A3A91F0809195
:10211000680161E098DB8A3A61F08091690160E0D2
:1021200092DB8A3A31F0133421F4013011F4009338
:102130006A01279803C08C2D8A95F1F71899CECBA8
:10214000FACFAB2B09F051CD69CDCD2B09F4F5CDEC
:10215000BDCD85B1886885B984B1886884B92F9868
:102160000000000000002B980000000000000000AC
:102170002B9A000000002B980000000000000000D7
:102180002B9A000000002B980000000000000000C7
:102190002B9A000000002B980000000000000000B7
:1021A0002B9A00000000000000002F9A08952F9A3B
:1021B0002B9A00000000000000002B980000000097
:1021C00000000000000000002F9800000000000048
:1021D00000002F9A00000000000000002F9800006F
:1021E0000000000000002F9A000000000000000026
:1021F000000000002B9A85B1886885B984B1877783
:1022000084B908952F9A0000000087FF02C02B9A1E
:1022100001C02B98000000002F9800000000000073
:102220002B9A0000000086FF02C02F9A01C02F9851
:10223000000000002B980000000000002F9A000012
:10224000000085FF02C02B9A01C02B9800000000FF
:102250002F980000000000002B9A0000000084FF6F
:1022600002C02F9A01C02F98000000002B98000098
:10227000000000002F9A0000000083FF02C02B9A8C
:1022800001C02B98000000002F9800000000000003
:102290002B9A0000000082FF02C02F9A01C02F98E5
:1022A000000000002B980000000000002F9A0000A2
:1022B000000081FF02C02B9A01C02B980000000093
:1022C0002F980000000000002B9A0000000080FF03
:1022D00002C02F9A01C02F98000000002B98000028
:1022E000000000000895EF92FF920F931F93E82ED5
:1022F000FF241BC00F2D10E0000F111F000F111F36
:10230000F801EA57FE4F80817DDFF801EB57FE4F61
:10231000808178DFF801EC57FE4F808173DF0D5725
:102320001E4FF80180816EDFF394FE1418F31F91A5
:102330000F91FF90EF900895EF92FF920F931F93EC
:10234000CF93DF93CCEAD0E085E0809383018CE1EA
:102350008093860120918601E0908501809184011F
:1023600090918301E226E826E926F3DE81E0BBDFD7
:102370002396FE01F4908F2D45DF2197FE011491E5
:10238000812F40DF2197FE0104912197802F3ADFB2
:10239000FE0184911F2510271827E12633DF24969C
:1023A000F1E0CC31DF0721F78E2D2CDF00DFDF914C
:1023B000CF911F910F91FF90EF9008951F933FB120
:1023C00049B180917901882321F023B120952073B0
:1023D00003C023B12095207788E08093830183E0B8
:1023E0008093860180E090E0A0E0B1E080938701D7
:1023F00090938801A0938901B0938A018FEF9FEF9A
:1024000090938C0180938B0110928D0110928E011C
:1024100080E880938F018093900180939101809355
:1024200092013095337331FF08C08FEE9FEF909388
:102430008C0180938B011092900130FF0CC0809131
:102440008B0190918C018F7D90938C0180938B01F7
:102450008FEF8093900134FF0BC080918B0190919E
:102460008C018F7B90938C0180938B0110928F0154
:1024700035FF0CC080918B0190918C018F779093E8
:102480008C0180938B018FEF80938F0124FF09C013
:1024900080918B0190918C01877F90938C01809328
:1024A0008B014095242F44FF09C080918B019091AE
:1024B0008C018B7F90938C0180938B0125FF09C049
:1024C00080918B0190918C018D7F90938C018093F2
:1024D0008B0126FF03C08FEF80938D0120FF09C081
:1024E00080918B0190918C019B7F90938C018093C4
:1024F0008B0121FF09C080918B0190918C019D7F00
:1025000090938C0180938B0122FF03C08FEF809307
:102510008E0110E020E030E0F901ED57FE4F8081A0
:1025200018272F5F3F4F20313105B1F712DE84E0CD
:10253000DADE812F67DE3BDE1F91089520E880E020
:1025400090E00FB6F89420936100809361000FBE75
:102550001092820185B7806885BF85B7806885BF86
:1025600081E8809364002093650091E093BF84B17B
:10257000877784B9229A85B1886885B92A9820938B
:102580006B009093680078948895809182018F3FCA
:10259000D9F7F894809184018F73803289F5809106
:1025A00084019091850190938401809385018091AD
:1025B0008301813011F4C0DE05C080918301893030
:1025C00009F4FCDE0E94F2048091850190E0807C99
:1025D00090708034910579F0813491051CF4892B39
:1025E00041F00EC08038910541F0803C910541F4E6
:1025F00006C03E9A05C03F9A03C0869A01C0879ADA
:10260000109282017894C0CF80E090E020E80FB66D
:10261000F89420936100809361000FBE8EE884B926
:102620008FEC85B985B1886885B985B1897F85B911
:102630003091790189B1809583FF02C099E701C08B
:1026400099EF83B181748134E1F795B98FB18095A9
:10265000837381FD02C09FEF01C09DEF80FD9B7FD2
:1026600084FD977F85FD9F7783B181748134E1F389
:1026700095B983B181748034E9F689B1809585FD7F
:1026800002C09FEF01C09DEF86FD9B7F84FD977F79
:10269000332321F083B18095807303C083B180958B
:1026A000807784FD9F7783B181748034E1F395B99D
:1026B00083B18174813009F0BDCF29B12095822F7B
:1026C00022FD02C09FEF01C09DEF81FD9B7F80FD39
:1026D000977F27FD9F7783B181748130E1F395B9AE
:1026E000A9CF882311F42B9A04C02B9802C01F99FC
:1026F00009C01999FCCF02C01F9904C0199BFCCFD7
:1027000080E0089581E00895DF92EF92FF920F93A9
:102710001F93CF93DF9380E090E020E80FB6F8940A
:1027200020936100809361000FBE1092640088E0E6
:1027300084B92B9ADD24D3942B9A1F9BFECF01C022
:10274000DD24EFB0E09423E3E22299B190958091EB
:102750007901882329F0F3B0F09430E3F32204C028
:10276000F3B0F09480E7F822092F10E0DD2009F0A3
:1027700051C0C80145E0969587954A95E1F781706B
:10278000B0DF8823F1F634E0169507953A95E1F726
:10279000802F8170A6DF8823A1F6CF2DD0E0CE0157
:1027A00025E0969587952A95E1F781709ADF882331
:1027B00041F684E0D695C7958A95E1F79E01217090
:1027C000822F8FDF882309F0BCCFCE2DD0E0CE0141
:1027D00096958795817085DF882309F0B2CF9E0199
:1027E0002170822F7EDF882309F0ABCFCE0114E069
:1027F000969587951A95E1F7817073DF882309F024
:10280000A0CFB5E0D695C795BA95E1F79E012170A6
:10281000822F76C0C801A4E096958795AA95E1F726
:1028200081705FDF882309F08CCF802F817059DFA2
:10283000882309F086CFCF2DD0E0CE01F5E0969524
:102840008795FA95E1F781704CDF882309F079CFFD
:10285000E4E0D695C795EA95E1F79E012170822FB5
:1028600040DF882309F06DCFCE2DD0E0CE019695C4
:102870008795817036DF882309F063CF9E01217030
:10288000822F2FDF882309F05CCFCE0164E096957C
:1028900087956A95E1F7817024DF882309F051CF8D
:1028A00055E0D695C7955A95E1F79E012170822F84
:1028B00018DF882309F045CFC80145E09695879534
:1028C0004A95E1F781700DDF882309F039CFC801FF
:1028D00096958795817005DF882309F032CFC8016E
:1028E00096958795969587958170FBDE882309F0EC
:1028F00028CFB6E016950795BA95E1F7802F81703D
:10290000F0DE882309F01DCF2B9A16CF84B7877F7E
:1029100084BF88E10FB6F894809360001092600045
:102920000FBE81E090E020E80FB6F894209361009C
:10293000809361000FBE84B1807784B985B18660D1
:1029400085B985B1867085B980B38C7C80BB81B335
:10295000836381BB8AB11AB88BB18FEF8BB9809139
:102960007901882341F084B18F7884B985B180637F
:1029700085B92E9806C084B18F7884B985B18067F7
:1029800085B988B18F7388B981B38F7381BB87B1E3
:102990008F7387B980B38F7380BB729A76986A9A67
:1029A0006E9A1092810080918100886080938100EE
:1029B0008CE795E1909389008093880008950895AD
:1029C000089581E080936F01089510926F0108953A
:1029D000EF92FF920F931F93DF93CF93CDB7DEB7A4
:1029E000C054D0400FB6F894DEBF0FBECDBFEDB6D9
:1029F000FEB68091A101853009F41BC1863020F418
:102A0000813009F094C107C0863009F49EC0893036
:102A100009F08DC12FC18091A001813A09F087C1D1
:102A20008091A2019091A30123E080309207E1F40C
:102A30001DB70EB78091A6019091A7012DB73EB7A3
:102A4000281B390B0FB6F8943EBF0FBE2DBF8DB7B4
:102A50009EB70196AC01DC01E0E1F1E088E0019075
:102A60000D928150E1F71EC08350934059F51DB778
:102A70000EB78091A6019091A7012DB73EB7281BF4
:102A8000390B0FB6F8943EBF0FBE2DBF8DB79EB762
:102A90000196AC01DC01E8E2F1E080E301900D92E7
:102AA0008150E1F78091E800877F8093E800609192
:102AB000A6017091A701CA010E94681D8091E800DB
:102AC0008B772BC180918001882339F08E010F5FB5
:102AD0001F4FC8010E94E1080AC080917D01882330
:102AE000A9F08E010F5F1F4FC8010E945D0A8091FF
:102AF000E800877F8093E800C80164E170E0E8D7D0
:102B00008091E8008B778093E80011C1809181016A
:102B10008E010F5F1F4F882361F0C8010E94F106EC
:102B20008091E800877F8093E800C80160E470E04E
:102B3000E6CFC8010E94F7048091E800877F809368
:102B4000E800C8016BE170E0DACF8091A001803825
:102B500091F52091A2013091A301432F80917F0133
:102B60008F5F80937F012050314099F48091A601BE
:102B70009091A7018830910511F0429751F480910E
:102B80007A018F5F80937A0180917B018F5F8093C0
:102B90007B01423049F48091A6019091A7018055B4
:102BA000914009F0C4C060C0433009F0C0C081E06A
:102BB00080937C01BCC0813C09F0B9C08091A20126
:102BC0009091A3018050924409F0B1C08091A60178
:102BD0009091A701409709F0AAC01DB70EB78DB715
:102BE0009EB740970FB6F8949EBF0FBE8DBF01965B
:102BF000AC01DC01E8E1F1E080E101900D9281504F
:102C0000E1F78091E800877F8093E8006091A6015A
:102C10007091A701CA015CD78091E8008B778093FF
:102C2000E80081E08093800110927A0110927B018C
:102C300076C08091A001882309F079C080917F013E
:102C4000882369F480916E01882349F410927E01F3
:102C500081E08093810110927A0110927B01809132
:102C60007B01813009F063C080917A018F5F80938E
:102C70007A015DC08091A001882381F580917C015B
:102C8000882329F480917A018F5F80937A01809163
:102C90007A01843018F180916E018823F9F4F89458
:102CA0008091E00081608093E00020D480E49CE982
:102CB0000197F1F710927A0110927B0172986E9849
:102CC0008CE291E020E931E0F9013197F1F70197C9
:102CD000D9F783E080930C010E943B0C8091A00106
:102CE000813229F51DB70EB76091A6017091A70139
:102CF0002DB73EB7261B370B0FB6F8943EBF0FBE5D
:102D00002DBF8091E800877F8093E8008DB79EB744
:102D1000019659D78091E8008E778093E800212FA3
:102D2000302FC9010FB6F8949EBF0FBE8DBF0FB6EE
:102D3000F894FEBE0FBEEDBEC05CDF4F0FB6F89438
:102D4000DEBF0FBECDBFCF91DF911F910F91FF90DE
:102D5000EF90089580918001882321F480917D0176
:102D6000882341F081E061EC42E238D382E060ECFC
:102D700042E211C080918101882331F084E061EC4E
:102D800042E32CD383E005C081E061EC42E326D32B
:102D900082E060EC42E322C30F931F93DF93CF9353
:102DA000CDB7DEB764970FB6F894DEBF0FBECDBFC8
:102DB00080919F01843009F04FC082E08093E90048
:102DC0008091E80082FF30C08091E80085FF27C035
:102DD0008AE591E063E070E040E050E0B3D7809195
:102DE0005A018130E1F480915B018330C1F40E948B
:102DF000F20480915C01882319F40E94F2040FC050
:102E0000863011F43E9A0BC0873011F43F9A07C008
:102E1000883011F4869A03C0893009F4879A80912A
:102E2000E8008B778093E80081E08093E90080914F
:102E3000E80080FF11C08E010F5F1F4FC8010E9484
:102E40005D0AC80164E170E040E050E0CDD78091B8
:102E5000E8008E778093E80064960FB6F894DEBFA2
:102E60000FBECDBFCF91DF911F910F9108950F93AA
:102E70001F93DF93CF93CDB7DEB764970FB6F89467
:102E8000DEBF0FBECDBF80919F01843079F582E017
:102E90008093E9008091E80082FF10C08091E800F3
:102EA00085FF07C0CE01019666E070E040E050E08B
:102EB00049D78091E8008B778093E80081E0809388
:102EC000E9008091E80080FF11C08E010F5F1F4F65
:102ED000C8010E94E108C80164E170E040E050E0F0
:102EE00083D78091E8008E778093E80064960FB6D0
:102EF000F894DEBF0FBECDBFCF91DF911F910F9130
:102F000008950F931F93DF93CF93CDB7DEB7C054CF
:102F1000D0400FB6F894DEBF0FBECDBF80919F01A9
:102F2000843031F583E08093E9008091E80082FFEE
:102F300007C08091E8008091E8008B778093E800DB
:102F400084E08093E9008091E80080FF11C08E0149
:102F50000F5F1F4FC8010E94F106C80160E470E0D6
:102F600040E050E041D78091E8008E778093E80000
:102F7000C05CDF4F0FB6F894DEBF0FBECDBFCF9160
:102F8000DF911F910F9108950F931F93DF93CF93BC
:102F9000CDB7DEB76B970FB6F894DEBF0FBECDBFCF
:102FA00080919F01843009F04AC082E08093E9005B
:102FB0008091E80082FF2BC08091E80085FF22C04D
:102FC000CE01019668E070E040E050E0BBD60E9480
:102FD000F2048B81813059F0823071F0843089F0B5
:102FE000883011F4879A0EC0893019F4879A3E9A76
:102FF00009C08A3019F4879A3F9A04C08C3011F4C2
:10300000879A869A8091E8008B778093E80081E028
:103010008093E9008091E80080FF11C08E010F5F6E
:103020001F4FC8010E94F704C8016BE170E040E047
:1030300050E0DAD68091E8008E778093E8006B96B6
:103040000FB6F894DEBF0FBECDBFCF91DF911F91B9
:103050000F9108951F93CF93DF9380E090E020E8D5
:103060000FB6F89420936100809361000FBEBED22A
:103070007894C0E9D1E011E080916F01882359F183
:103080008091700190917101A0917201B0917301D2
:1030900080342DE0920723E0A20720E0B20760F41D
:1030A0000196A11DB11D8093700190937101A093B1
:1030B0007201B093730117C080917901882321F0C8
:1030C00083B18095807303C083B1809580778075CC
:1030D00051F06DD108C010927001109271011092E0
:1030E00072011092730180918001882311F0BFDE7C
:1030F0000DC080917D01882311F04EDE07C08091C4
:103100008101882311F0FDDE01C03EDFBFD6809132
:103110007801882309F4B0CF8091E000816080932A
:10312000E00080E29EE4FE013197F1F70197D9F7C4
:103130008091E0008E7F8093E00010936E011092EA
:1031400078019ACFEF92FF920F931F93DFDB80E419
:103150009CE90197F1F789B18095282F30E0C901EA
:103160008270907020FF0BC021E020936E01892BAC
:1031700011F020937E01EE24FF24870145C0A901B0
:1031800044705070892B01F181E080936E01452BD2
:1031900031F080917901882311F036DAECCF25FFE8
:1031A00004C081E080937D01E6CF72986E988CE236
:1031B00091E020E931E0F9013197F1F70197D9F772
:1031C00083E080930C010EC0452B29F081E08093B1
:1031D0006E01B4D9D0CF24FF08C081E080936E0186
:1031E00080910C010E943B0CC6CF25FF06C081E0F8
:1031F00080936E0180938001BECF26FFBCCF81E01B
:1032000080936E0181DAB7CF83B1887809F496D9BB
:10321000199907C080910C010E943B0CEE24FF24F9
:1032200087010894E11CF11C011D111D80EEE816B8
:1032300083E9F80684E0080780E0180728F30ADF2E
:1032400080E090E01F910F91FF90EF900895DA01D8
:10325000933009F44EC0943030F4913059F09230EC
:1032600009F09DC028C0913209F47FC0923209F064
:1032700096C087C080917E01882319F0E7E5F2E0CF
:1032800017C080918101882319F0E9E6F2E010C0AF
:1032900080918001882319F0EBE7F2E009C080916A
:1032A0007D01882319F4E5E4F2E002C0EDE8F2E0E4
:1032B00022E130E078C080918001882329F0E1EF9D
:1032C000F2E020E230E06FC080917D01882329F098
:1032D000E1E1F3E029E930E066C0809181018823D3
:1032E00019F4EFE9F2E002C0E8ECF2E029E230E0A4
:1032F0005AC0823001F1833030F4882361F081308C
:1033000009F04DC00CC0843031F1843000F18E3EA4
:1033100009F045C024C0E4E8F4E0849123C0809122
:103320007D01882321F0EAEAF4E084911BC0E8E8FB
:10333000F4E0849117C080917D01882321F0E6EEAE
:10334000F4E084910FC0EAECF4E084910BC0E2E772
:10335000F4E0849107C0EAEAF3E0849103C0EEE56B
:10336000F4E08491282F30E01EC0809181018823F1
:1033700019F4E1EBF2E002C0EAEDF2E029E030E01E
:1033800012C080918101882329F4ECE1F1E029E861
:1033900030E009C0E5EAF1E020EA30E004C0E0E016
:1033A000F0E020E030E0ED93FC93C901089580E166
:1033B00089BD89B5826089BD09B400FEFDCF8091C9
:1033C000D8008F7D8093D8008091E0008260809348
:1033D000E0008091E00081FDFCCF0895382F282F78
:1033E0002CC02093E900231721F4762F942F50E06E
:1033F00006C07091EC009091ED005091F00091FFAB
:103400001BC08091EB008E7F8093EB008091ED00DC
:1034100082708093ED008091EB0081608093EB00DF
:103420007093EC009093ED005093F0008091EE00CB
:1034300087FD02C080E008952F5F273090F230931F
:10344000E90081E008958091A00188239CF404C0E4
:1034500080919F018823B9F08091E80082FFF8CF26
:103460008091E8008B778093E800089580919F0118
:10347000882349F08091E80080FFF8CF8091E80030
:103480008E778093E80008954091E4005091E50024
:1034900024E68091EC0080FF05C08091E80080FF69
:1034A00005C022C08091E80082FD1EC080919F016E
:1034B000882311F482E00895853011F483E00895A3
:1034C0008091EB0085FF02C081E008958091E400C7
:1034D0009091E50084179507E1F2222311F484E02E
:1034E00008952150AC01D5CF80E008958AD091D0C5
:1034F000E0EEF0E0808181608083A8EDB0E08C9107
:103500008F778C9319BCE7EDF0E080818E7F80830C
:103510008C918F7E8C9310929E010895DF93CF93B0
:1035200000D0CDB7DEB76DD074D08091D800982F81
:103530009F779093D80080688093D8008091D800BE
:103540008F7D8093D80019BC10929F0110929D012D
:1035500010929C0110929B0180E091E060E0AE012E
:103560004F5F5F4F74DE892B31F0E981FA81379626
:10357000E491E09358018091E0008B7F8093E0001C
:103580008091D80081608093D8008091580190E0AC
:1035900028E030E040E003C04F5F220F331F2817C0
:1035A0003907D0F34295407F426080E060E016DF4B
:1035B0008091E1008E7F8093E1008091E200816044
:1035C0008093E2008091E20088608093E200809125
:1035D000E0008E7F8093E0008091D800806180932E
:1035E000D8000F900F90CF91DF910895E7EDF0E0B4
:1035F0008081816080838AE482BF81E080939E0124
:103600008DCFE8EDF0E080818E7F80831092E20024
:1036100008951092DA001092E10008951F920F921F
:103620000FB60F9211242F933F934F935F936F9395
:103630007F938F939F93AF93BF93EF93FF9380916B
:10364000E10082FF0AC08091E20082FF06C0809103
:10365000E1008B7F8093E1003AD28091DA0080FF15
:103660001EC08091D80080FF1AC08091DA008E7F42
:103670008093DA008091D90080FF0DC080E189BD80
:1036800089B5826089BD09B400FEFDCF81E08093D9
:103690009F0195D904C019BC10929F0191D98091C6
:1036A000E10080FF18C08091E20080FF14C080918B
:1036B000E2008E7F8093E2008091E200806180933F
:1036C000E2008091D80080628093D80019BC85E028
:1036D00080939F0176D98091E10084FF2EC0809174
:1036E000E20084FF2AC080E189BD89B5826089BD7E
:1036F00009B400FEFDCF8091D8008F7D8093D80063
:103700008091E1008F7E8093E1008091E2008F7EC6
:103710008093E2008091E20081608093E2008091DA
:103720009D01882331F48091E30087FD02C081E090
:1037300001C084E080939F0148D98091E10083FF1C
:1037400031C08091E20083FF2DC08091E100877F2E
:103750008093E10082E080939F0110929D0180910F
:10376000E1008E7F8093E1008091E2008E7F809364
:10377000E2008091E20080618093E2008091580134
:1037800090E040E028E030E003C04F5F220F331F9D
:1037900028173907D0F34295407F426080E060E00F
:1037A0001DDE95D1FF91EF91BF91AF919F918F91C8
:1037B0007F916F915F914F913F912F910F900FBE2D
:1037C0000F901F9018950F931F93DF93CF93CDB752
:1037D000DEB7AC970FB6F894DEBF0FBECDBF8091B9
:1037E000F1008093A0018091F1008093A10180916C
:1037F000F1009091F100E2EAF1E08093A201909350
:10380000A3018091F1009091F1008093A401938332
:103810008091F1009091F1008093A6019583D8D812
:103820008091E80083FF3AC18091A0013091A1010D
:10383000353009F487C0363040F43130C9F13130C9
:1038400070F0333009F02AC133C0383009F4F8C0C1
:10385000393009F407C1363009F020C199C08038E9
:1038600021F0823809F01AC108C090919B01809123
:103870009C01882399F0926011C08091A401877007
:103880008093E9008091EB0090E025E09695879584
:103890002A95E1F7982F91701092E9008091E80045
:1038A000877F8093E8009093F1001092F100D3C0DD
:1038B000882319F0823009F0F1C090E08F71907088
:1038C000009721F0029709F0E9C00CC08091A20195
:1038D000813009F0E3C010929C01333069F5809388
:1038E0009C012AC08091A201882331F52091A40176
:1038F000277009F4D3C02093E9008091EB0080FF8A
:103900001BC0333021F48091EB00806213C08091A2
:10391000EB0080618093EB0081E090E002C0880FB3
:10392000991F2A95E2F78093EA001092EA008091AD
:10393000EB0088608093EB001092E9008091E80032
:10394000877F8CC0882309F0A9C01091A2011F773E
:103950000FB7F8948091E800877F8093E80073DDCB
:103960008091E80080FFFCCF8091E3008078812B7C
:103970008093E3008091E30080688093E30011234B
:1039800011F482E001C083E080939F010FBF86C0E5
:103990008058823008F082C08091A2019091A301EA
:1039A00023E08C3D920709F033C083E08C838AE2E8
:1039B0008B837FB7F894DE0115966EE040E050E00F
:1039C00011E2E62FF0E010935700849140FF03C00E
:1039D00082958F706F5F8F70282F30E08A3018F0DB
:1039E000C901C79602C0C901C0968D939D934F5FD0
:1039F0005F4F4431510529F77FBF8091E800877FF1
:103A00008093E800CE0103966AE270E061D012C0B4
:103A10006091A401AE014F5F5F4F19DCBC010097BC
:103A200009F43CC08091E800877F8093E800898199
:103A30009A810FD18091E8008B778093E8002EC0A7
:103A4000803861F58091E800877F8093E80080915D
:103A50009D018093F1008091E8008E778093E800CB
:103A6000F2DC1CC08823D1F49091A2019230B0F412
:103A70008091E800877F8093E80090939D01E3DCCC
:103A800080919D01882331F48091E30087FD02C07D
:103A900081E001C084E080939F015CD98091E800BF
:103AA00083FF0AC08091EB0080628093EB008091DD
:103AB000E800877F8093E800AC960FB6F894DEBFED
:103AC0000FBECDBFCF91DF911F910F910895089543
:103AD000E82F4091A6015091A7014617570750F4CF
:103AE0002E2F392FC901DC0180915801E82FF0E019
:103AF00090E043C06115710511F0AB01F1CF8091E9
:103B0000E8008E778093E80040E050E0E9CF8091B4
:103B10009F01882309F451C0853009F450C0809179
:103B2000E80083FD4EC08091E80082FD40C0809196
:103B3000E80080FF22C08091F3009091F200782F7E
:103B400060E0292F30E0262B372B07C08D91809322
:103B5000F100415050402F5F3F4F4115510519F082
:103B60002E173F0798F390E02E173F0709F491E0D6
:103B70008091E8008E778093E8004115510539F671
:103B8000992329F614C080919F018823B1F08530D4
:103B9000B1F08091E80083FF0AC080916E01882314
:103BA00081F410927E0181E08093810108958091DB
:103BB000E80082FFE8CF80E0089582E0089583E086
:103BC000089581E008959C016115710529F48091A3
:103BD000E8008B778093E800F90127C080919F016E
:103BE000882399F1853099F18091E80083FF02C024
:103BF00081E008958091E80082FFF0CF06C08091B7
:103C0000F10081936150704059F02091F300809150
:103C1000F200322F20E090E0822B932B892B79F752
:103C20008091E8008B778093E80061157105B1F60B
:103C300006C080919F01882341F0853041F080913A
:103C4000E80080FFF6CF80E0089582E0089583E0E9
:103C500008959C014091A6015091A701461757076E
:103C600038F4F90180915801A82FB0E090E044C0E9
:103C70006115710511F0AB01F4CF8091E8008E77EA
:103C80008093E80040E050E0ECCF80919F018823D2
:103C900009F452C0853009F451C08091E80083FDD9
:103CA0004FC08091E80082FD41C08091E80080FF14
:103CB00023C08091F3009091F200782F60E0292FCB
:103CC00030E0262B372B08C084918093F100319689
:103CD000415050402F5F3F4F4115510519F02A17B1
:103CE0003B0790F390E02A173B0709F491E080919D
:103CF000E8008E778093E8004115510531F699234D
:103D000021F614C080919F018823B1F08530B1F075
:103D10008091E80083FF0AC080916E01882381F4BE
:103D200010927E0181E08093810108958091E800E6
:103D300082FFE8CF80E0089582E0089583E008954F
:103D400081E00895BF92CF92DF92EF92FF920F939E
:103D50001F93CF93DF93182F092F7B016A0194DB08
:103D6000B82E8823B1F5812F902F9C01E901C11451
:103D7000D10439F0F60180819181E81AF90AC80F5F
:103D8000D91F00E010E022C08091E80085FD16C038
:103D90008091E8008B778093E800C114D10449F04A
:103DA000F60180819181800F911F9183808385E04E
:103DB00011C06CD069DB882349F00CC08091F10000
:103DC00089930894E108F1080F5F1F4FE114F10493
:103DD000D9F68B2DDF91CF911F910F91FF90EF902E
:103DE000DF90CF90BF900895BF92CF92DF92EF9275
:103DF000FF920F931F93CF93DF93182F092F7B010F
:103E00006A0142DBB82E8823B1F5812F902F9C01E7
:103E1000E901C114D10439F0F60180819181E81AD9
:103E2000F90AC80FD91F00E010E022C08091E80015
:103E300085FD16C08091E8008E778093E800C1145C
:103E4000D10449F0F60180819181800F911F918307
:103E5000808385E011C01AD017DB882349F00CC09D
:103E600089918093F1000894E108F1080F5F1F4FDA
:103E7000E114F104D9F68B2DDF91CF911F910F91B1
:103E8000FF90EF90DF90CF90BF9008951F938091A7
:103E90009F01882361F01091E9001092E900809160
:103EA000E80083FF01C08FDC17701093E9001F91B9
:063EB0000895F894FFCF15
:103EB60001FFFF8080808041FFFF8701040101012F
:103EC600212602040000000010420001010214062F
:103ED600FFFFFFFFFFFFFFFF03212703090000008D
:103EE600000000000000000000000D0D00000000B2
:103EF60000000000000000000000000000000000BC
:0A3F060000000000000000000800A9
:023F10002FB100
:023F1200209500
:023F1400C22F00
:023F1600237000
:023F1800C07300
:023F1A00C03000
:023F1C0049F000
:023F1E00C03300
:023F200029F000
:023F2200D0E300
:023F2400DC2700
:043F2600D093FF0100
:023F2A0002C000
:043F2C00C091FF0100
:023F30002C2B00
:023F3200089500
:00000001FF
